{
  "contractName": "Decentagram",
  "abi": [
    {
      "anonymous": false,
      "inputs": [
        {
          "indexed": true,
          "internalType": "uint256",
          "name": "id",
          "type": "uint256"
        },
        {
          "indexed": false,
          "internalType": "string",
          "name": "_description",
          "type": "string"
        },
        {
          "indexed": false,
          "internalType": "string",
          "name": "imgHash",
          "type": "string"
        },
        {
          "indexed": false,
          "internalType": "uint256",
          "name": "tip",
          "type": "uint256"
        },
        {
          "indexed": true,
          "internalType": "address",
          "name": "author",
          "type": "address"
        }
      ],
      "name": "postCreated",
      "type": "event"
    },
    {
      "anonymous": false,
      "inputs": [
        {
          "indexed": true,
          "internalType": "uint256",
          "name": "id",
          "type": "uint256"
        },
        {
          "indexed": false,
          "internalType": "uint256",
          "name": "tip",
          "type": "uint256"
        },
        {
          "indexed": false,
          "internalType": "uint256",
          "name": "tipAmount",
          "type": "uint256"
        }
      ],
      "name": "tipGivenToAuthor",
      "type": "event"
    },
    {
      "inputs": [],
      "name": "name",
      "outputs": [
        {
          "internalType": "string",
          "name": "",
          "type": "string"
        }
      ],
      "stateMutability": "view",
      "type": "function",
      "constant": true
    },
    {
      "inputs": [],
      "name": "postCount",
      "outputs": [
        {
          "internalType": "uint256",
          "name": "",
          "type": "uint256"
        }
      ],
      "stateMutability": "view",
      "type": "function",
      "constant": true
    },
    {
      "inputs": [
        {
          "internalType": "uint256",
          "name": "",
          "type": "uint256"
        }
      ],
      "name": "posts",
      "outputs": [
        {
          "internalType": "uint256",
          "name": "id",
          "type": "uint256"
        },
        {
          "internalType": "string",
          "name": "description",
          "type": "string"
        },
        {
          "internalType": "string",
          "name": "imgHash",
          "type": "string"
        },
        {
          "internalType": "uint256",
          "name": "tipAmount",
          "type": "uint256"
        },
        {
          "internalType": "address",
          "name": "author",
          "type": "address"
        }
      ],
      "stateMutability": "view",
      "type": "function",
      "constant": true
    },
    {
      "inputs": [
        {
          "internalType": "string",
          "name": "_description",
          "type": "string"
        },
        {
          "internalType": "string",
          "name": "_imgHash",
          "type": "string"
        }
      ],
      "name": "createPost",
      "outputs": [],
      "stateMutability": "nonpayable",
      "type": "function"
    },
    {
      "inputs": [
        {
          "internalType": "uint256",
          "name": "_id",
          "type": "uint256"
        }
      ],
      "name": "tipsToAuthor",
      "outputs": [],
      "stateMutability": "payable",
      "type": "function",
      "payable": true
    }
  ],
  "bytecode": "0x60806040526040518060400160405280600b81526020017f446563656e74616772616d000000000000000000000000000000000000000000815250600090805190602001906200005192919062000066565b503480156200005f57600080fd5b506200017b565b828054620000749062000116565b90600052602060002090601f016020900481019282620000985760008555620000e4565b82601f10620000b357805160ff1916838001178555620000e4565b82800160010185558215620000e4579182015b82811115620000e3578251825591602001919060010190620000c6565b5b509050620000f39190620000f7565b5090565b5b8082111562000112576000816000905550600101620000f8565b5090565b600060028204905060018216806200012f57607f821691505b602082108114156200014657620001456200014c565b5b50919050565b7f4e487b7100000000000000000000000000000000000000000000000000000000600052602260045260246000fd5b610cf6806200018b6000396000f3fe60806040526004361061004a5760003560e01c806306fdde031461004f5780630b1e7f831461007a57806317906c2e146100bb578063392338f5146100e6578063dabd11b41461010f575b600080fd5b34801561005b57600080fd5b5061006461012b565b604051610071919061089e565b60405180910390f35b34801561008657600080fd5b506100a1600480360381019061009c91906107e8565b6101b9565b6040516100b2959493929190610940565b60405180910390f35b3480156100c757600080fd5b506100d061031f565b6040516100dd9190610925565b60405180910390f35b3480156100f257600080fd5b5061010d60048036038101906101089190610770565b610325565b005b610129600480360381019061012491906107e8565b6104dd565b005b6000805461013890610b22565b80601f016020809104026020016040519081016040528092919081815260200182805461016490610b22565b80156101b15780601f10610186576101008083540402835291602001916101b1565b820191906000526020600020905b81548152906001019060200180831161019457829003601f168201915b505050505081565b60026020528060005260406000206000915090508060000154908060010180546101e290610b22565b80601f016020809104026020016040519081016040528092919081815260200182805461020e90610b22565b801561025b5780601f106102305761010080835404028352916020019161025b565b820191906000526020600020905b81548152906001019060200180831161023e57829003601f168201915b50505050509080600201805461027090610b22565b80601f016020809104026020016040519081016040528092919081815260200182805461029c90610b22565b80156102e95780601f106102be576101008083540402835291602001916102e9565b820191906000526020600020905b8154815290600101906020018083116102cc57829003601f168201915b5050505050908060030154908060040160009054906101000a900473ffffffffffffffffffffffffffffffffffffffff16905085565b60015481565b600082511161033357600080fd5b600081511161034157600080fd5b600073ffffffffffffffffffffffffffffffffffffffff163373ffffffffffffffffffffffffffffffffffffffff16141561037b57600080fd5b610390600180546105ea90919063ffffffff16565b6001819055506040518060a001604052806001548152602001838152602001828152602001600081526020013373ffffffffffffffffffffffffffffffffffffffff16815250600260006001548152602001908152602001600020600082015181600001556020820151816001019080519060200190610411929190610648565b50604082015181600201908051906020019061042e929190610648565b506060820151816003015560808201518160040160006101000a81548173ffffffffffffffffffffffffffffffffffffffff021916908373ffffffffffffffffffffffffffffffffffffffff1602179055509050503373ffffffffffffffffffffffffffffffffffffffff166001547f59c7a36711655e213dab6374c3a54f1273b8189a64ac818ba3fc631b14260efe848460006040516104d1939291906108c0565b60405180910390a35050565b6000811180156104ef57506001548111155b6104f857600080fd5b662386f26fc1000034101561050c57600080fd5b60006002600083815260200190815260200160002090508060040160009054906101000a900473ffffffffffffffffffffffffffffffffffffffff1673ffffffffffffffffffffffffffffffffffffffff166108fc349081150290604051600060405180830381858888f1935050505015801561058d573d6000803e3d6000fd5b508060030160008154809291906105a390610b85565b9190505550817f63d2b4a61975f8ab8b86f445e0ee52af6f054df75a7ccb57880989f7f895aec43483600301546040516105de9291906109a1565b60405180910390a25050565b60008082846105f99190610a3c565b90508381101561063e576040517f08c379a000000000000000000000000000000000000000000000000000000000815260040161063590610905565b60405180910390fd5b8091505092915050565b82805461065490610b22565b90600052602060002090601f01602090048101928261067657600085556106bd565b82601f1061068f57805160ff19168380011785556106bd565b828001600101855582156106bd579182015b828111156106bc5782518255916020019190600101906106a1565b5b5090506106ca91906106ce565b5090565b5b808211156106e75760008160009055506001016106cf565b5090565b60006106fe6106f9846109ef565b6109ca565b90508281526020810184848401111561071a57610719610c60565b5b610725848285610ae0565b509392505050565b600082601f83011261074257610741610c5b565b5b81356107528482602086016106eb565b91505092915050565b60008135905061076a81610ca9565b92915050565b6000806040838503121561078757610786610c6a565b5b600083013567ffffffffffffffff8111156107a5576107a4610c65565b5b6107b18582860161072d565b925050602083013567ffffffffffffffff8111156107d2576107d1610c65565b5b6107de8582860161072d565b9150509250929050565b6000602082840312156107fe576107fd610c6a565b5b600061080c8482850161075b565b91505092915050565b61081e81610a92565b82525050565b61082d81610ace565b82525050565b600061083e82610a20565b6108488185610a2b565b9350610858818560208601610aef565b61086181610c6f565b840191505092915050565b6000610879601b83610a2b565b915061088482610c80565b602082019050919050565b61089881610ac4565b82525050565b600060208201905081810360008301526108b88184610833565b905092915050565b600060608201905081810360008301526108da8186610833565b905081810360208301526108ee8185610833565b90506108fd6040830184610824565b949350505050565b6000602082019050818103600083015261091e8161086c565b9050919050565b600060208201905061093a600083018461088f565b92915050565b600060a082019050610955600083018861088f565b81810360208301526109678187610833565b9050818103604083015261097b8186610833565b905061098a606083018561088f565b6109976080830184610815565b9695505050505050565b60006040820190506109b6600083018561088f565b6109c3602083018461088f565b9392505050565b60006109d46109e5565b90506109e08282610b54565b919050565b6000604051905090565b600067ffffffffffffffff821115610a0a57610a09610c2c565b5b610a1382610c6f565b9050602081019050919050565b600081519050919050565b600082825260208201905092915050565b6000610a4782610ac4565b9150610a5283610ac4565b9250827fffffffffffffffffffffffffffffffffffffffffffffffffffffffffffffffff03821115610a8757610a86610bce565b5b828201905092915050565b6000610a9d82610aa4565b9050919050565b600073ffffffffffffffffffffffffffffffffffffffff82169050919050565b6000819050919050565b6000610ad982610ac4565b9050919050565b82818337600083830152505050565b60005b83811015610b0d578082015181840152602081019050610af2565b83811115610b1c576000848401525b50505050565b60006002820490506001821680610b3a57607f821691505b60208210811415610b4e57610b4d610bfd565b5b50919050565b610b5d82610c6f565b810181811067ffffffffffffffff82111715610b7c57610b7b610c2c565b5b80604052505050565b6000610b9082610ac4565b91507fffffffffffffffffffffffffffffffffffffffffffffffffffffffffffffffff821415610bc357610bc2610bce565b5b600182019050919050565b7f4e487b7100000000000000000000000000000000000000000000000000000000600052601160045260246000fd5b7f4e487b7100000000000000000000000000000000000000000000000000000000600052602260045260246000fd5b7f4e487b7100000000000000000000000000000000000000000000000000000000600052604160045260246000fd5b600080fd5b600080fd5b600080fd5b600080fd5b6000601f19601f8301169050919050565b7f536166654d6174683a206164646974696f6e206f766572666c6f770000000000600082015250565b610cb281610ac4565b8114610cbd57600080fd5b5056fea2646970667358221220e8455b2d938b6f30991dc0f26011f98dbf77ff796f459e880531c09288799c2564736f6c63430008070033",
  "immutableReferences": {},
  "source": "pragma solidity >=0.8.6 <0.9.0;\r\nimport \"./safemath.sol\";\r\n\r\ncontract Decentagram {\r\n\r\nusing SafeMath for uint;\r\n\r\nstring public name = \"Decentagram\";\r\n\r\nstruct Post {\r\n    uint id;\r\n    string description;\r\n    string imgHash;\r\n    uint tipAmount;\r\n    address author;\r\n}\r\nuint public postCount;\r\nmapping(uint => Post) public posts;\r\n\r\nevent postCreated(uint indexed id, string _description, string imgHash, uint tip, address indexed author);\r\n\r\nevent tipGivenToAuthor(uint indexed id, uint tip, uint tipAmount);\r\n\r\nfunction createPost(string memory _description, string memory _imgHash) public {\r\n    require(bytes(_description).length > 0);\r\n    require(bytes(_imgHash).length > 0);\r\n    require(msg.sender != address(0));\r\n    postCount = postCount.add(1);\r\n    posts[postCount] = Post(postCount, _description, _imgHash, 0, msg.sender);\r\n    emit postCreated(postCount, _description, _imgHash, 0, msg.sender);\r\n}\r\n\r\nfunction tipsToAuthor(uint _id) public payable {\r\n    require(_id > 0 && _id <= postCount);\r\n    require(msg.value >= 0.01 ether);\r\n    Post storage post = posts[_id];\r\n    payable(post.author).transfer(msg.value);\r\n    post.tipAmount++;\r\n    emit tipGivenToAuthor(_id, msg.value, post.tipAmount);\r\n}\r\n\r\n\r\n}",
  "sourcePath": "C:\\Users\\Owner\\Desktop\\decentagram\\src\\contracts\\Decentagram.sol",
  "compiler": {
    "name": "solc",
    "version": "0.8.7+commit.e28d00a7.Emscripten.clang"
  },
  "schemaVersion": "3.4.2",
  "updatedAt": "2021-08-16T21:25:29.790Z",
  "networkType": "ethereum",
  "devdoc": {
    "kind": "dev",
    "methods": {},
    "version": 1
  },
  "userdoc": {
    "kind": "user",
    "methods": {},
    "version": 1
  }
}